:100000000C943E000C9448000C9448000C9448005A
:100010000C9448000C9448000C9448000C94480040
:100020000C9448000C9448000C9448000C94480030
:100030000C9448000C9448000C9448000C94480020
:100040000C9448000C9448000C9448000C94480010
:100050000C9448000C9448000C9448000C94480000
:100060000C9448000C9448000C9448000C944800F0
:100070000C9448000C9448000C94480011241FBEB6
:10008000CFEFD8E0DEBFCDBF0E949E000C94AC0144
:100090000C94000082B92C982D982E9A83EF91E051
:1000A0000197F1F700C000002E98089588E30E94A0
:1000B0004A0089EF90E00197F1F700C0000081E06D
:1000C0000E944A0089EF90E00197F1F700C000001C
:1000D00082E00E944A0089EF90E00197F1F700C0AA
:1000E000000086E00E944A0089EF90E00197F1F756
:1000F00000C0000080E80E944A0089EF90E001976C
:10010000F1F700C00000089582B92C9A2D982E9A1C
:1001100083EF91E00197F1F700C000002E98089559
:10012000882321F0813021F480EC03C080E801C0F5
:1001300080E0603108F4860F0C944A00CF93DF937F
:1001400000D000D0CDB7DEB78FEF81B984B91AB82F
:100150008BB90E94560087EA91E60197F1F700C03B
:1001600000008CE00E944A00E7EAF1E63197F1F7DF
:1001700000C0000081E00E944A0084E50E948400E3
:1001800089EF90E00197F1F700C0000085E40E943C
:100190008400E9EFF0E03197F1F700C000008DE452
:1001A0000E94840089EF90E00197F1F700C0000001
:1001B00080E50E948400E9EFF0E03197F1F700C09C
:1001C00000008DE30E94840089EF90E00197F1F731
:1001D00000C0000080EC0E944A00E7EAF1E6319797
:1001E000F1F700C000008CE00E944A0087EA91E627
:1001F0000197F1F700C0000083E50E948400E9EF59
:10020000F0E03197F1F700C0000080E50E94840023
:1002100089EF90E00197F1F700C0000084E40E94AC
:100220008400E9EFF0E03197F1F700C000008DE3C2
:100230000E94840089EF90E00197F1F700C0000070
:1002400010E25E0195E0A90EB11C19831A831B838D
:100250001C8385E80E944A0089B14AE050E0BE0153
:100260006F5F7F4F90E00E946C01FE0131967F012D
:100270006F01F60181916F0190ED980F9A3008F0AF
:1002800080E20E948400AC14BD0499F719831A839C
:100290001B831C8384EC0E944A0089B190E04AE0F1
:1002A00050E0BE016F5F7F4F8C599F4F0E946C01E1
:1002B000F70181917F0190ED980F9A3008F080E26C
:1002C0000E948400EA14FB0499F783E294EF0197FB
:1002D000F1F700C00000B9CF4532510520F442309B
:1002E00010F00C947701FB011082CB010895BB271D
:1002F0004A3031F4992322F4BDE2909581959F4FC5
:100300000C948301BB27FB015527AA27880F991F4F
:10031000AA1FA41710F0A41B83955051B9F7A05D34
:10032000AA3308F0A95DA193009779F7B111B193B1
:100330001192CB010C949C01DC01FC01672F71919F
:100340007723E1F7329704C07C916D9370836291BB
:0C035000AE17BF07C8F30895F894FFCF64
:00000001FF
