:100000000C943E000C9448000C9448000C9448005A
:100010000C9448000C9448000C9448000C94480040
:100020000C9448000C9448000C9448000C94480030
:100030000C9448000C9448000C9448000C94480020
:100040000C9448000C9448000C9448000C94480010
:100050000C9448000C9448000C9448000C94480000
:100060000C9448000C9448000C9448000C944800F0
:100070000C9448000C9448000C94480011241FBEB6
:10008000CFEFD8E0DEBFCDBF0E9400010C94790114
:100090000C94000082B92C982D982E9A83EF91E051
:1000A0000197F1F700C000002E98089588E30E94A0
:1000B0004A0089EF90E00197F1F700C0000081E06D
:1000C0000E944A0089EF90E00197F1F700C000001C
:1000D00082E00E944A0089EF90E00197F1F700C0AA
:1000E000000086E00E944A0089EF90E00197F1F756
:1000F00000C0000080E80E944A0089EF90E001976C
:10010000F1F700C00000089582B92C9A2D982E9A1C
:1001100083EF91E00197F1F700C000002E98089559
:10012000882321F0813021F480EC03C080E801C0F5
:1001300080E0603108F4860F0C944A008EEF8BB992
:1001400089EF90E00197F1F700C000004C9B38C0A8
:100150004D9B38C04E9B38C04F9B38C08DEF8BB93C
:1001600089EF90E00197F1F700C000004C9B30C090
:100170004D9B30C04E9B30C04F9B30C08BEF8BB936
:1001800089EF90E00197F1F700C000004C9B28C078
:100190004D9B28C04E9B28C04F9B28C087EF8BB932
:1001A00089EF90E00197F1F700C000004C9B20C060
:1001B0004D9B20C04E9B20C04F9B20C08EE40895D5
:1001C00081E3089582E3089583E3089581E4089527
:1001D00084E3089585E3089586E3089582E408950D
:1001E00087E3089588E3089589E3089583E40895F3
:1001F0008AE2089580E3089583E2089584E40895EF
:100200008FEF81B984B98FE08AB980EF82B90E94FB
:10021000560087EA91E60197F1F700C000008CE0F4
:100220000E944A0087EA91E60197F1F700C00000BA
:1002300081E00E944A0087EA91E60197F1F700C049
:1002400000008BE40E94840089EF90E00197F1F7B1
:1002500000C0000085E60E94840089EF90E00197CD
:10026000F1F700C0000089E70E94840089EF90E068
:100270000197F1F700C0000080E50E94840089EF3B
:1002800090E00197F1F700C0000081E60E94840031
:1002900089EF90E00197F1F700C0000084E60E942A
:1002A000840089EF90E00197F1F700C0000080E240
:1002B0000E94840089EF90E00197F1F700C00000F0
:1002C0008DE30E94840089EF90E00197F1F700C070
:1002D000000089E80E944A000E949E008E3421F0AE
:1002E0000E949E000E94840083E294EF0197F1F740
:0602F000EECFF894FFCFF1
:00000001FF
