:100000000C943E000C9448000C9448000C9448005A
:100010000C9448000C9448000C9448000C94480040
:100020000C9448000C9448000C9448000C94480030
:100030000C9448000C9448000C9448000C94480020
:100040000C9448000C9448000C9448000C94480010
:100050000C9448000C9448000C9448000C94480000
:100060000C9448000C9448000C9448000C944800F0
:100070000C9448000C9448000C94480011241FBEB6
:10008000CFEFD8E0DEBFCDBF0E9490000C94A4015A
:100090000C94000082B92C982D982E9A83EF91E051
:1000A0000197F1F700C000002E98089588E30E94A0
:1000B0004A0089EF90E00197F1F700C0000081E06D
:1000C0000E944A0089EF90E00197F1F700C000001C
:1000D00082E00E944A0089EF90E00197F1F700C0AA
:1000E000000086E00E944A0089EF90E00197F1F756
:1000F00000C0000080E80E944A0089EF90E001976C
:10010000F1F700C00000089582B92C9A2D982E9A1C
:1001100083EF91E00197F1F700C000002E98089559
:100120008FEF81B984B90E94560087EA91E6019762
:10013000F1F700C000008CE00E944A0087EA91E6D7
:100140000197F1F700C0000084E40E94840087EA70
:1001500091E60197F1F700C0000082E70E94840059
:1001600087EA91E60197F1F700C000008EE20E9455
:10017000840087EA91E60197F1F700C000008DE462
:100180000E94840087EA91E60197F1F700C0000021
:100190008FE60E94840087EA91E60197F1F700C09C
:1001A000000088E60E94840087EA91E60197F1F753
:1001B00000C0000081E60E94840087EA91E6019772
:1001C000F1F700C000008DE60E94840087EA91E606
:1001D0000197F1F700C0000085E60E94840087EADD
:1001E00091E60197F1F700C0000084E60E948400C8
:1001F00080E20E94840087EA91E60197F1F700C04F
:10020000000081E40E94840087EA91E60197F1F7FB
:1002100000C000008BE60E94840087EA91E6019707
:10022000F1F700C0000082E70E94840087EA91E6AF
:100230000197F1F700C0000081E60E94840087EA80
:1002400091E60197F1F700C000008DE60E9484005E
:1002500087EA91E60197F1F700C0000080EC0E9468
:100260004A0087EA91E60197F1F700C000008CE0B0
:100270000E944A0087EA91E60197F1F700C000006A
:10028000C4E080E20E94840083EF91E00197F1F7DF
:1002900000C00000C150A9F78AE40E94840087EAE8
:1002A00091E60197F1F700C0000081E40E9484000C
:1002B00087EA91E60197F1F700C0000082E40E940E
:1002C000840087EA91E60197F1F700C0000081E41D
:1002D0000E94840087EA91E60197F1F700C00000D0
:1002E0008CE40E94840087EA91E60197F1F700C050
:1002F00000008CE40E94840087EA91E60197F1F700
:1003000000C0000081E40E94840087EA91E6019722
:10031000F1F700C0000088E40E94840087EA91E6BB
:100320000197F1F700C000008EE00E944A009FE3B1
:100330002DE083E0915020408040E1F700C00000B4
:0C03400081E00E944A0000CFF894FFCF3B
:00000001FF
