:100000000C943E000C9453000C9453000C94530039
:100010000C9453000C9453000C9453000C94530014
:100020000C9453000C9453000C9453000C94530004
:100030000C9453000C9453000C9453000C945300F4
:100040000C9453000C9453000C9453000C945300E4
:100050000C9453000C9453000C9453000C945300D4
:100060000C9453000C9453000C9453000C945300C4
:100070000C9453000C9453000C94530011241FBE95
:10008000CFEFD8E0DEBFCDBF11E0A0E0B1E0E8EFF8
:10009000F1E002C005900D92AA31B107D9F70E9494
:1000A000BC000C94FA000C94000082B92C982D9896
:1000B0002E9A83EF91E00197F1F700C000002E988F
:1000C000089588E30E94550089EF90E00197F1F7C9
:1000D00000C0000081E00E94550089EF90E0019788
:1000E000F1F700C0000082E00E94550089EF90E027
:1000F0000197F1F700C0000086E00E94550089EFEB
:1001000090E00197F1F700C0000080E80E945500E0
:1001100089EF90E00197F1F700C00000089582B9DF
:100120002C9A2D982E9A83EF91E00197F1F700C059
:1001300000002E980895882321F0813021F480EC6E
:1001400003C080E801C080E0603108F4860F0C94A1
:1001500055000F931F93CF938C01C0E0F801EC0F73
:10016000F11D8081882321F00E948F00CF5FF6CFA0
:10017000CF911F910F9108958FEF81B984B90E949B
:10018000610087EA91E60197F1F700C000008CE07A
:100190000E94550087EA91E60197F1F700C0000040
:1001A00080E80E94550080E091E00E94A90087EA63
:1001B00091E60197F1F700C0000084EC0E94550021
:1001C00081E191E00E94A90087EA91E60197F1F7A9
:1001D00000C000008EE00E9455009FE32DE083E008
:1001E000915020408040E1F700C0000081E00E9473
:0801F0005500D6CFF894FFCFB3
:1001F80044722E4D6F68616D656420416B72616D4C
:0A020800004A4142414C4C414800BD
:00000001FF
