:100000000C94BB000C94C5000C94C5000C94C50066
:100010000C94C5000C94C5000C94C5000C94C5004C
:100020000C94C5000C94C5000C94C5000C94C5003C
:100030000C94C5000C94C5000C94C5000C94C5002C
:100040000C94C5000C94C5000C94C5000C94C5001C
:100050000C94C5000C94C5000C94C5000C94C5000C
:100060000C94C5000C94C5000C94C5000C94C500FC
:100070000C94C5000C94C5000C94C50000407A1087
:10008000F35A00A0724E18090010A5D4E80000E849
:100090007648170000E40B54020000CA9A3B0000A7
:1000A00000E1F505000080969800000040420F0036
:1000B0000000A08601000000102700000000E803F7
:1000C000000000006400000000000A0000000000C2
:1000D0000100000000002C76D888DC674F0823DF81
:1000E000C1DFAE59E1B1B796E5E3E453C63AE65154
:1000F000997696E8E6C28426EB898C9B62ED407C7B
:100100006FFCEFBC9C9F40F2BAA56FA5F490055A16
:100110002AF75C936B6CF9676DC11BFCE0E40D473B
:10012000FEF520E6B500D0ED902E0300943577055E
:100130000080841E080000204E0A000000C80C3316
:100140003333330F986E12831141EF8D2114893BA5
:10015000E65516CFFEE6DB18D1844B381BF77C1D25
:10016000901DA4BBE424203284725E228100C9F178
:1001700024ECA1E53D2711241FBECFEFD8E0DEBF60
:10018000CDBF0E941B010C94A9050C94000082B9FC
:100190002C982D982E9A83EF91E00197F1F700C0EB
:1001A00000002E98089588E30E94C70089EF90E030
:1001B0000197F1F700C0000081E00E94C70089EFBD
:1001C00090E00197F1F700C0000082E00E94C700B4
:1001D00089EF90E00197F1F700C0000086E00E94EF
:1001E000C70089EF90E00197F1F700C0000080E8B8
:1001F0000E94C70089EF90E00197F1F700C000006E
:10020000089582B92C9A2D982E9A83EF91E0019748
:10021000F1F700C000002E980895882321F0813066
:1002200021F480EC03C080E801C080E0603108F474
:10023000860F0C94C700CF93DF93CDB7DEB72A9714
:100240000FB6F894DEBF0FBECDBF8FEF81B984B972
:100250000E94D30087EA91E60197F1F700C0000001
:100260008CE00E94C700E7EAF1E63197F1F700C0A1
:10027000000081E00E94C70084E50E94010189EF2F
:1002800090E00197F1F700C0000085E40E940101B1
:10029000E9EFF0E03197F1F700C000008DE40E9433
:1002A000010189EF90E00197F1F700C0000080E5BF
:1002B0000E940101E9EFF0E03197F1F700C0000082
:1002C0008DE30E94010189EF90E00197F1F700C0F2
:1002D000000080EC0E94C700E7EAF1E63197F1F7F1
:1002E00000C000008CE00E94C70087EA91E60197F9
:1002F000F1F700C0000083E50E940101E9EFF0E0A2
:100300003197F1F700C0000080E50E94010189EFFC
:1003100090E00197F1F700C0000084E40E94010121
:10032000E9EFF0E03197F1F700C000008DE30E94A3
:10033000010189EF90E00197F1F700C00000FE0194
:1003400031967F018AE011928A95E9F780E28983EC
:1003500029EA422E23ED522E25E0622E22E4722E4F
:1003600033E3832E33E9932E3DE6A32E34E4B32EFC
:100370006E01FBE0CF0ED11C1701F70180E28193E3
:10038000EC15FD05D9F785E80E94C700870122E03A
:1003900030E044E050E0C501B4010E942003F801C0
:1003A00081918F018E3229F090ED980F9A3008F0EC
:1003B00080E20E9401010C151D0589F720E030E064
:1003C00040E85FE3C501B4010E943A024B015C01C1
:1003D00020E030EC49E754E40E94F70218163CF4A0
:1003E0009AE9892E99E9992EA92C9EE3B92EF70155
:1003F00080E28193EC15FD05D9F784EC0E94C700DB
:10040000870124E030E044E050E0C301B2010E94E3
:100410002003F10181911F018E3229F090ED980F98
:100420009A3008F080E20E9401012C143D0489F703
:1004300020E030E040E85FE3C301B2010E943A02ED
:100440002B013C0120E030EC49E754E40E94F70224
:10045000181644F48BE2482E87E8582E86E1682E61
:100460008EE3782E83E294EF0197F1F700C000004D
:1004700083CF5058BB27AA270E9451020C94BD027B
:100480000E94AF0238F00E94B60220F039F49F3F7C
:1004900019F426F40C94AC020EF4E095E7FB0C94EE
:1004A000A602E92F0E94CE0258F3BA17620773071B
:1004B0008407950720F079F4A6F50C94F0020EF469
:1004C000E0950B2EBA2FA02D0B01B90190010C0164
:1004D000CA01A0011124FF27591B99F0593F50F47C
:1004E000503E68F11A16F040A22F232F342F4427D4
:1004F000585FF3CF469537952795A795F0405395CC
:10050000C9F77EF41F16BA0B620B730B840BBAF09B
:100510009150A1F0FF0FBB1F661F771F881FC2F706
:100520000EC0BA0F621F731F841F48F4879577951A
:100530006795B795F7959E3F08F0B0CF9395880FD4
:1005400008F09927EE0F97958795089597F99F677B
:1005500080E870E060E008959FEF80EC089500244B
:100560000A941616170618060906089500240A9418
:1005700012161306140605060895092E0394000C9E
:1005800011F4882352F0BB0F40F4BF2B11F460FF2D
:1005900004C06F5F7F4F8F4F9F4F089557FD905856
:1005A000440F551F59F05F3F71F04795880F97FB37
:1005B000991F61F09F3F79F08795089512161306F1
:1005C0001406551FF2CF4695F1DF08C01616170620
:1005D0001806991FF1CF8695710561050894089555
:1005E000E894BB2766277727CB0197F908950E94E7
:1005F000FC0208F48FEF0895990F0008550FAA0B1D
:10060000E0E8FEEF16161706E807F907C0F0121625
:100610001306E407F50798F0621B730B840B950B28
:1006200039F40A2661F0232B242B252B21F408957D
:100630000A2609F4A140A6958FEF811D811D08951A
:10064000EF920F931F93CF93DF93E80147FD02C012
:1006500034E001C034E1042E000C550B57FF03C0F9
:10066000519541955109E32E022F242FAE010E948E
:100670004003CE01DF91CF911F910F91EF9008952C
:10068000A9E0B0E0E6E4F3E00C9478056A01122FEB
:10069000B02E2BE3201720F0FF24F394F00E02C0BD
:1006A0002CE3F22E0F2D27E0AE014F5F5F4F0E942B
:1006B0009A04BC014981842F8970813031F0E1FCBA
:1006C00006C0E0FE06C090E205C09DE203C09BE2CA
:1006D00001C090E05E2D507143FF3CC0911102C0FB
:1006E00083E001C084E0811718F4212F281B01C08A
:1006F00020E051110BC0F601822F30E2882319F05F
:1007000031938150FBCFC20ED11C20E0992329F0F8
:10071000D6019C93F60131966F01C6010396E2FE65
:100720000AC03EE4D6013C9341E411964C931197E4
:1007300012963C9306C03EE6F601308341E64183C3
:100740003283FC01322F40E2332309F442C041934B
:100750003150FACF42FF44C0911102C083E001C082
:1007600084E0811718F4212F281B01C020E05111CB
:100770000BC0F601822F30E2882319F031938150AB
:10078000FBCFC20ED11C20E0992329F0D6019C9307
:10079000F60131966F01C6010396E2FE0BC039E403
:1007A000D6013C933EE411963C93119736E41296A1
:1007B0003C9307C039E6F60130833EE6318336E6E6
:1007C0003283FC01322F40E2332319F04193315040
:1007D000FBCFFC01E20FF11D10828EEF9FEFA6C050
:1007E00021E030E0911102C020E030E0161617063B
:1007F0001CF4FB01319602C0E1E0F0E02E0F3F1F38
:10080000BB2021F0EB2DF0E0319602C0E0E0F0E0FB
:100810002E0F3F1FE12FF0E02E173F071CF4121B95
:10082000212F01C020E08E2D887159F4F601822F0E
:1008300030E2882319F031938150FBCFC20ED11CD6
:1008400020E0992329F0D6019C93F60131966F019F
:1008500051110BC0F601822F90E3882319F0919378
:100860008150FBCFC20ED11C20E00F2D060F9A81C4
:10087000342F307144FF03C0913309F40150101636
:1008800024F4093018F008E001C001E0AB0177FF63
:1008900002C040E050E0FB01E41BF50BA1E0B0E03A
:1008A000AC0FBD1FEA0FFB1F8EE2A82E4B01801A72
:1008B00091080B2D10E01195019511094F3FBFEFE5
:1008C0005B0721F4D601AC9211966D016417750790
:1008D0002CF08416950614F4818101C080E3415008
:1008E00051093196D60111967D014017510724F028
:1008F000D6018C936701E2CF6417750739F49633FC
:1009000020F4953319F4311101C081E3F60180839D
:10091000F701822F90E2882319F091938150FBCF49
:10092000F701E20FF11D108280E090E02996ECE0E3
:100930000C949405283008F027E03327DA01990F4A
:10094000311D87FD916000966105710539F43260B3
:100950002E5F3D9330E32A95E1F708959F3F30F0F5
:1009600080387105610509F03C5F3C5F3D93913033
:1009700008F08068911DDF93CF931F930F93FF9230
:10098000EF92192F987F9695E92F96959695E90FF6
:10099000FF27EA52FF4F99273327EE24FF24A701B0
:1009A000E70105900894079428F4360FE71EF81E17
:1009B000491F511D660F771F881F991F0694A1F7C5
:1009C0000590079428F4E70EF81E491F561FC11D15
:1009D000770F881F991F661F0694A1F7059007944B
:1009E00028F4F80E491F561FC71FD11D880F991FE5
:1009F000661F771F0694A1F70590079420F4490F0E
:100A0000561FC71FD81F990F661F771F881F069490
:100A1000A9F784911095177041F0D695C795579511
:100A20004795F794E7941A95C1F7ECE7F0E06894DE
:100A30001590159135916591959105907FE273958B
:100A4000E118F10A430B560BC90BD009C0F7E10CB2
:100A5000F11E431F561FC91FD01D7EF4703311F4C1
:100A60008A95E6CFE894015030F0080F0AF4002789
:100A7000021708F4202F2395022F7A3328F079E308
:100A80007D932A95E9F710C07D932A9589F60694FF
:100A900097956795379517951794E118F10A430BC9
:100AA000560BC90BD00998F023957E9173957A3334
:100AB00008F070E37C932013B8F77E9170617D930A
:100AC00030F0839571E37D9370E32A95E1F711246B
:100AD000EF90FF900F911F91CF91DF91992787FDA4
:100AE000909508952F923F924F925F926F927F92CE
:100AF0008F929F92AF92BF92CF92DF92EF92FF922E
:100B00000F931F93CF93DF93CDB7DEB7CA1BDB0BD9
:100B10000FB6F894DEBF0FBECDBF09942A8839887E
:100B200048885F846E847D848C849B84AA84B98485
:100B3000C884DF80EE80FD800C811B81AA81B98191
:100B4000CE0FD11D0FB6F894DEBF0FBECDBFED01A5
:060B50000895F894FFCFA8
:00000001FF
