:100000000C943E000C9448000C9448000C9448005A
:100010000C9448000C9448000C9448000C94480040
:100020000C9448000C9448000C9448000C94480030
:100030000C9448000C9448000C9448000C94480020
:100040000C9448000C9448000C9448000C94480010
:100050000C9448000C9448000C9448000C94480000
:100060000C9448000C9448000C9448000C944800F0
:100070000C9448000C9448000C94480011241FBEB6
:10008000CFEFD8E0DEBFCDBF0E949E000C94BE0132
:100090000C94000082B92C982D982E9A83EF91E051
:1000A0000197F1F700C000002E98089588E30E94A0
:1000B0004A0089EF90E00197F1F700C0000081E06D
:1000C0000E944A0089EF90E00197F1F700C000001C
:1000D00082E00E944A0089EF90E00197F1F700C0AA
:1000E000000086E00E944A0089EF90E00197F1F756
:1000F00000C0000080E80E944A0089EF90E001976C
:10010000F1F700C00000089582B92C9A2D982E9A1C
:1001100083EF91E00197F1F700C000002E98089559
:10012000882321F0813021F480EC03C080E801C0F5
:1001300080E0603108F4860F0C944A00CF93DF937F
:1001400000D000D0CDB7DEB78FEF81B984B90E945F
:10015000560087EA91E60197F1F700C000008CE0B5
:100160000E944A00E7EAF1E63197F1F700C000008B
:1001700081E00E944A0084E50E94840089EF90E0BB
:100180000197F1F700C0000085E40E948400E9EFC8
:10019000F0E03197F1F700C000008DE40E94840088
:1001A00089EF90E00197F1F700C0000080E50E9420
:1001B0008400E9EFF0E03197F1F700C000008DE333
:1001C0000E94840089EF90E00197F1F700C00000E1
:1001D00080EC0E944A00E7EAF1E63197F1F700C0AF
:1001E00000008CE00E944A0087EA91E60197F1F74F
:1001F00000C0000083E50E948400E9EFF0E0319741
:10020000F1F700C0000080E50E94840089EF90E0D3
:100210000197F1F700C0000084E40E948400E9EF38
:10022000F0E03197F1F700C000008DE30E948400F8
:1002300089EF90E00197F1F700C0000084E6E82E16
:10024000F12C03E813E090E2792E4E0195E0890E3F
:10025000911C79827A827B827C8285E80E944A00A6
:100260004AE050E0BE016F5F7F4FC8010E947E01EF
:10027000FE0131966F015F01F50181915F0190ED03
:10028000980F9A3008F080E20E9484008A149B0440
:1002900099F70F5F1F4F083EF3E01F0710F000E0D3
:1002A00010E079827A827B827C8284EC0E944A0010
:1002B0004AE050E0BE016F5F7F4FC7010E947E01A0
:1002C000F60181916F0190ED980F9A3008F080E26D
:1002D0000E9484008C149D0499F7FFEFEF1AFF0A27
:1002E00088EEE81683E0F80610F0E12CF12CE3E24A
:1002F000F4EF3197F1F700C00000ABCF4532510564
:1003000020F4423010F00C948901FB011082CB01E3
:100310000895BB274A3031F4992322F4BDE2909529
:1003200081959F4F0C949501BB27FB015527AA2768
:10033000880F991FAA1FA41710F0A41B8395505172
:10034000B9F7A05DAA3308F0A95DA193009779F7EA
:10035000B111B1931192CB010C94AE01DC01FC01FF
:10036000672F71917723E1F7329704C07C916D93E9
:1003700070836291AE17BF07C8F30895F894FFCF5A
:00000001FF
