:100000000C943E000C945B000C945B000C945B0021
:100010000C945B000C945B000C945B000C945B00F4
:100020000C945B000C945B000C945B000C945B00E4
:100030000C945B000C945B000C945B000C945B00D4
:100040000C945B000C945B000C945B000C945B00C4
:100050000C945B000C945B000C945B000C945B00B4
:100060000C945B000C945B000C945B000C945B00A4
:100070000C945B000C945B000C945B0011241FBE7D
:10008000CFEFD8E0DEBFCDBF11E0A0E0B1E0EAEAFB
:10009000F4E002C005900D92A431B107D9F721E038
:1000A000A4E1B1E001C01D92A631B207E1F70E94C0
:1000B0009B010C9453020C94000082B92C982D984B
:1000C0002E9A83EF91E00197F1F700C000002E987F
:1000D000089588E30E945D0089EF90E00197F1F7B1
:1000E00000C0000081E00E945D0089EF90E0019770
:1000F000F1F700C0000082E00E945D0089EF90E00F
:100100000197F1F700C0000086E00E945D0089EFD2
:1001100090E00197F1F700C0000080E80E945D00C8
:1001200089EF90E00197F1F700C00000089582B9CF
:100130002C9A2D982E9A83EF91E00197F1F700C049
:1001400000002E980895882321F0813021F480EC5E
:1001500003C080E801C080E0603108F4860F0C9491
:100160005D000F931F93CF938C01C0E0F801EC0F5B
:10017000F11D8081882321F00E949700CF5FF6CF88
:10018000CF911F910F9108958EEF8BB989EF90E079
:100190000197F1F700C000004C9B3BC04D9B3BC05A
:1001A0004E9B3BC04F9B3BC08DEF8BB989EF90E0DE
:1001B0000197F1F700C000004C9B33C04D9B33C04A
:1001C0004E9B33C04F9B33C08BEF8BB989EF90E0D0
:1001D0000197F1F700C000004C9B2BC04D9B2BC03A
:1001E0004E9B2BC04F9B2BC087EF8BB989EF90E0C4
:1001F0000197F1F700C000004C9B23C099B1892FF3
:10020000807295FF23C04E9B1EC04F9B1EC084E68C
:10021000089581E0089582E0089583E0089581E4DF
:10022000089584E0089585E0089586E0089582E4C5
:10023000089587E0089588E0089589E0089583E4AB
:1002400008958AE2089583E2089582E30895EF9283
:10025000FF920F931F93CF93DF9300D000D0CDB7C1
:10026000DEB719821A821B821C8280E289830E9477
:10027000C4008A3078F080911401909115010F909C
:100280000F900F900F90DF91CF911F910F91FF90E2
:10029000EF90089520911401309115014AE0429F9A
:1002A000C001439F900D1124909315018093140178
:1002B0000E94C4002091140130911501A901480F3A
:1002C000511D4F3F510509F028F4509315014093FB
:1002D000140104C0109215011092140180E2898368
:1002E0008A838B838C8389E80E945D004AE050E01A
:1002F000BE016F5F7F4F80911401909115010E94A4
:1003000013020E94C400843609F4B5CF8E010F5F3A
:100310001F4F7E0155E0E50EF11CF80181918F0120
:1003200090ED980F9A3008F080E20E9497000E1529
:100330001F0599F7A0CFCF93DF9300D000D0CDB7A2
:10034000DEB78FEF81B984B98FE08AB980EF8BB9BE
:100350000E94690087EA91E60197F1F700C000006A
:100360008CE00E945D00E7EAF1E63197F1F700C00A
:10037000000081E00E945D0080E80E945D0080E056
:1003800091E00E94B10089EF90E00197F1F700C081
:10039000000080EC0E945D008AE091E00E94B100C4
:1003A000E9EFF0E03197F1F700C0000019821A82FE
:1003B0001B821C8280E2898310E26E01F5E0CF0E81
:1003C000D11C0E9427017C010E94C400823339F0B5
:1003D00083E294EF0197F1F700C00000F2CF198398
:1003E0001A831B831C8388EC0E945D004AE050E066
:1003F000BE016F5F7F4FC7010E9413020E94C400BD
:10040000843631F3FE0131967F01F70181917F013E
:1004100090ED980F9A3008F080E20E949700EC145B
:10042000FD0499F7D5CF4532510520F4423010F044
:100430000C941E02FB011082CB010895BB274A30A9
:1004400031F4992322F4BDE2909581959F4F0C944D
:100450002A02BB27FB015527AA27880F991FAA1F2D
:10046000A41710F0A41B83955051B9F7A05DAA33CF
:1004700008F0A95DA193009779F7B111B19311929A
:10048000CB010C944302DC01FC01672F71917723AF
:10049000E1F7329704C07C916D9370836291AE173F
:0A04A000BF07C8F30895F894FFCFDA
:1004AA004B6579706164203D200046696E616C205D
:0404BA003D200000E1
:00000001FF
